{
  "contractName": "Counter",
  "abi": [
    {
      "inputs": [],
      "name": "value",
      "outputs": [
        {
          "internalType": "int256",
          "name": "",
          "type": "int256"
        }
      ],
      "stateMutability": "view",
      "type": "function",
      "constant": true
    },
    {
      "inputs": [],
      "name": "add",
      "outputs": [],
      "stateMutability": "nonpayable",
      "type": "function"
    },
    {
      "inputs": [],
      "name": "sub",
      "outputs": [],
      "stateMutability": "nonpayable",
      "type": "function"
    }
  ],
  "bytecode": "0x608060405234801561001057600080fd5b506101cc806100206000396000f3fe608060405234801561001057600080fd5b50600436106100415760003560e01c80633fa4f245146100465780634f2be91f14610064578063c54124be1461006e575b600080fd5b61004e610078565b60405161005b91906100c5565b60405180910390f35b61006c61007e565b005b610076610095565b005b60005481565b600160005461008d919061010f565b600081905550565b60016000546100a49190610153565b600081905550565b6000819050919050565b6100bf816100ac565b82525050565b60006020820190506100da60008301846100b6565b92915050565b7f4e487b7100000000000000000000000000000000000000000000000000000000600052601160045260246000fd5b600061011a826100ac565b9150610125836100ac565b92508282019050828112156000831216838212600084121516171561014d5761014c6100e0565b5b92915050565b600061015e826100ac565b9150610169836100ac565b92508282039050818112600084121682821360008512151617156101905761018f6100e0565b5b9291505056fea26469706673582212204ad2609e6c3bc725e7d3c2f610321f1fbef47cc2ef9cb77c5e2c646cddf90ea364736f6c63430008110033",
  "immutableReferences": {},
  "source": "// SPDX-License-Identifier: GPL-3.0\npragma solidity >=0.5.0;\n\ncontract Counter {\n    int256 public value;\n\n    function add() public {\n        value = value + 1;\n    }\n\n    function sub() public {\n        value = value - 1;\n    }\n}",
  "sourcePath": "/home/hialynn/ssafy/S07P22A707/smart-contract/contracts/counter.sol",
  "compiler": {
    "name": "solc",
    "version": "0.8.17+commit.8df45f5f.Emscripten.clang"
  },
  "schemaVersion": "3.4.10",
  "updatedAt": "2022-09-28T04:18:12.594Z",
  "networkType": "ethereum",
  "devdoc": {
    "kind": "dev",
    "methods": {},
    "version": 1
  },
  "userdoc": {
    "kind": "user",
    "methods": {},
    "version": 1
  }
}